{
  "contractName": "TodoList",
  "abi": [
    {
      "inputs": [],
      "stateMutability": "nonpayable",
      "type": "constructor"
    },
    {
      "anonymous": false,
      "inputs": [
        {
          "indexed": false,
          "internalType": "uint256",
          "name": "id",
          "type": "uint256"
        },
        {
          "indexed": false,
          "internalType": "string",
          "name": "content",
          "type": "string"
        }
      ],
      "name": "TaskAdded",
      "type": "event"
    },
    {
      "inputs": [],
      "name": "taskCount",
      "outputs": [
        {
          "internalType": "uint256",
          "name": "",
          "type": "uint256"
        }
      ],
      "stateMutability": "view",
      "type": "function"
    },
    {
      "inputs": [
        {
          "internalType": "uint256",
          "name": "",
          "type": "uint256"
        }
      ],
      "name": "tasks",
      "outputs": [
        {
          "internalType": "uint256",
          "name": "id",
          "type": "uint256"
        },
        {
          "internalType": "string",
          "name": "content",
          "type": "string"
        },
        {
          "internalType": "bool",
          "name": "completed",
          "type": "bool"
        }
      ],
      "stateMutability": "view",
      "type": "function"
    },
    {
      "inputs": [
        {
          "internalType": "string",
          "name": "_content",
          "type": "string"
        }
      ],
      "name": "createTask",
      "outputs": [],
      "stateMutability": "nonpayable",
      "type": "function"
    },
    {
      "inputs": [
        {
          "internalType": "uint256",
          "name": "_id",
          "type": "uint256"
        }
      ],
      "name": "getTask",
      "outputs": [
        {
          "components": [
            {
              "internalType": "uint256",
              "name": "id",
              "type": "uint256"
            },
            {
              "internalType": "string",
              "name": "content",
              "type": "string"
            },
            {
              "internalType": "bool",
              "name": "completed",
              "type": "bool"
            }
          ],
          "internalType": "struct TodoList.Task",
          "name": "",
          "type": "tuple"
        }
      ],
      "stateMutability": "view",
      "type": "function"
    },
    {
      "inputs": [
        {
          "internalType": "uint256",
          "name": "_id",
          "type": "uint256"
        }
      ],
      "name": "completeTask",
      "outputs": [],
      "stateMutability": "nonpayable",
      "type": "function"
    }
  ],
  "bytecode": "0x6080604052600080553480156200001557600080fd5b506200005c6040518060400160405280601381526020017f4c6561726e20736d617274636f6e7472616374000000000000000000000000008152506200006260201b60201c565b620003c0565b600080815480929190620000769062000303565b919050555060405180606001604052806000548152602001828152602001600015158152506001600080548152602001908152602001600020600082015181600001556020820151816001019080519060200190620000d79291906200013b565b5060408201518160020160006101000a81548160ff0219169083151502179055509050507f2ee7ce8bac091b03a0c391c07ee88a246bdd72bdc6b1ef1ce4d99220595d32c560005482604051620001309291906200023d565b60405180910390a150565b8280546200014990620002cd565b90600052602060002090601f0160209004810192826200016d5760008555620001b9565b82601f106200018857805160ff1916838001178555620001b9565b82800160010185558215620001b9579182015b82811115620001b85782518255916020019190600101906200019b565b5b509050620001c89190620001cc565b5090565b5b80821115620001e7576000816000905550600101620001cd565b5090565b6000620001f88262000271565b6200020481856200027c565b93506200021681856020860162000297565b6200022181620003af565b840191505092915050565b62000237816200028d565b82525050565b60006040820190506200025460008301856200022c565b8181036020830152620002688184620001eb565b90509392505050565b600081519050919050565b600082825260208201905092915050565b6000819050919050565b60005b83811015620002b75780820151818401526020810190506200029a565b83811115620002c7576000848401525b50505050565b60006002820490506001821680620002e657607f821691505b60208210811415620002fd57620002fc62000380565b5b50919050565b600062000310826200028d565b91507fffffffffffffffffffffffffffffffffffffffffffffffffffffffffffffffff82141562000346576200034562000351565b5b600182019050919050565b7f4e487b7100000000000000000000000000000000000000000000000000000000600052601160045260246000fd5b7f4e487b7100000000000000000000000000000000000000000000000000000000600052602260045260246000fd5b6000601f19601f8301169050919050565b61096380620003d06000396000f3fe608060405234801561001057600080fd5b50600436106100575760003560e01c8063111002aa1461005c5780631d65e77e146100785780638d977672146100a8578063b6cb58a5146100da578063e1e29558146100f8575b600080fd5b61007660048036038101906100719190610504565b610114565b005b610092600480360381019061008d9190610545565b6101e7565b60405161009f919061066c565b60405180910390f35b6100c260048036038101906100bd9190610545565b6102cb565b6040516100d1939291906106d9565b60405180910390f35b6100e261038a565b6040516100ef919061068e565b60405180910390f35b610112600480360381019061010d9190610545565b610390565b005b6000808154809291906101269061082f565b9190505550604051806060016040528060005481526020018281526020016000151581525060016000805481526020019081526020016000206000820151816000015560208201518160010190805190602001906101859291906103c1565b5060408201518160020160006101000a81548160ff0219169083151502179055509050507f2ee7ce8bac091b03a0c391c07ee88a246bdd72bdc6b1ef1ce4d99220595d32c5600054826040516101dc9291906106a9565b60405180910390a150565b6101ef610447565b6001600083815260200190815260200160002060405180606001604052908160008201548152602001600182018054610227906107fd565b80601f0160208091040260200160405190810160405280929190818152602001828054610253906107fd565b80156102a05780601f10610275576101008083540402835291602001916102a0565b820191906000526020600020905b81548152906001019060200180831161028357829003601f168201915b505050505081526020016002820160009054906101000a900460ff1615151515815250509050919050565b60016020528060005260406000206000915090508060000154908060010180546102f4906107fd565b80601f0160208091040260200160405190810160405280929190818152602001828054610320906107fd565b801561036d5780601f106103425761010080835404028352916020019161036d565b820191906000526020600020905b81548152906001019060200180831161035057829003601f168201915b5050505050908060020160009054906101000a900460ff16905083565b60005481565b600180600083815260200190815260200160002060020160006101000a81548160ff02191690831515021790555050565b8280546103cd906107fd565b90600052602060002090601f0160209004810192826103ef5760008555610436565b82601f1061040857805160ff1916838001178555610436565b82800160010185558215610436579182015b8281111561043557825182559160200191906001019061041a565b5b509050610443919061046a565b5090565b604051806060016040528060008152602001606081526020016000151581525090565b5b8082111561048357600081600090555060010161046b565b5090565b600061049a61049584610748565b610717565b9050828152602081018484840111156104b257600080fd5b6104bd8482856107bb565b509392505050565b600082601f8301126104d657600080fd5b81356104e6848260208601610487565b91505092915050565b6000813590506104fe81610916565b92915050565b60006020828403121561051657600080fd5b600082013567ffffffffffffffff81111561053057600080fd5b61053c848285016104c5565b91505092915050565b60006020828403121561055757600080fd5b6000610565848285016104ef565b91505092915050565b610577816107a5565b82525050565b610586816107a5565b82525050565b600061059782610778565b6105a18185610783565b93506105b18185602086016107ca565b6105ba81610905565b840191505092915050565b60006105d082610778565b6105da8185610794565b93506105ea8185602086016107ca565b6105f381610905565b840191505092915050565b6000606083016000830151610616600086018261064e565b506020830151848203602086015261062e828261058c565b9150506040830151610643604086018261056e565b508091505092915050565b610657816107b1565b82525050565b610666816107b1565b82525050565b6000602082019050818103600083015261068681846105fe565b905092915050565b60006020820190506106a3600083018461065d565b92915050565b60006040820190506106be600083018561065d565b81810360208301526106d081846105c5565b90509392505050565b60006060820190506106ee600083018661065d565b818103602083015261070081856105c5565b905061070f604083018461057d565b949350505050565b6000604051905081810181811067ffffffffffffffff8211171561073e5761073d6108d6565b5b8060405250919050565b600067ffffffffffffffff821115610763576107626108d6565b5b601f19601f8301169050602081019050919050565b600081519050919050565b600082825260208201905092915050565b600082825260208201905092915050565b60008115159050919050565b6000819050919050565b82818337600083830152505050565b60005b838110156107e85780820151818401526020810190506107cd565b838111156107f7576000848401525b50505050565b6000600282049050600182168061081557607f821691505b60208210811415610829576108286108a7565b5b50919050565b600061083a826107b1565b91507fffffffffffffffffffffffffffffffffffffffffffffffffffffffffffffffff82141561086d5761086c610878565b5b600182019050919050565b7f4e487b7100000000000000000000000000000000000000000000000000000000600052601160045260246000fd5b7f4e487b7100000000000000000000000000000000000000000000000000000000600052602260045260246000fd5b7f4e487b7100000000000000000000000000000000000000000000000000000000600052604160045260246000fd5b6000601f19601f8301169050919050565b61091f816107b1565b811461092a57600080fd5b5056fea2646970667358221220d884542cbb53dd7323ddc183161e804eb4ed4385fed781cb15b1d26ce6facc2664736f6c63430008000033",
  "immutableReferences": {},
  "source": "// SPDX-License-Identifier: MIT\r\npragma solidity ^0.8.0;\r\n\r\ncontract TodoList {\r\n    uint256 public taskCount = 0;\r\n    struct Task {\r\n        uint256 id;\r\n        string content;\r\n        bool completed;\r\n    }\r\n\r\n    mapping(uint256 => Task) public tasks;\r\n    event TaskAdded(uint256 id, string content);\r\n\r\n    constructor() {\r\n        createTask(\"Learn smartcontract\");\r\n    }\r\n\r\n    // function for create task\r\n    function createTask(string memory _content) public {\r\n        taskCount++;\r\n        tasks[taskCount] = Task(taskCount, _content, false);\r\n        emit TaskAdded(taskCount, _content);\r\n    }\r\n\r\n    function getTask(uint256 _id) public view returns (Task memory) {\r\n        return tasks[_id];\r\n    }\r\n\r\n    function completeTask(uint256 _id) public {\r\n        tasks[_id].completed = true;\r\n    }\r\n}\r\n",
  "sourcePath": "D:\\Hackathon\\Lab\\web3-todo-app\\contract\\contracts\\TodoList.sol",
  "compiler": {
    "name": "solc",
    "version": "0.8.0+commit.c7dfd78e.Emscripten.clang"
  },
  "schemaVersion": "3.4.10",
  "updatedAt": "2022-11-24T03:05:36.965Z",
  "devdoc": {
    "kind": "dev",
    "methods": {},
    "version": 1
  },
  "userdoc": {
    "kind": "user",
    "methods": {},
    "version": 1
  }
}